S01700004763634170706C69636174696F6E342E7372656358
S11300000C9434000C9451000C9451000C94510045
S11300100C9451000C9451000C9451000C94510018
S11300200C9451000C9451000C9451000C946101F7
S11300300C9451000C9451000C9451000C945100F8
S11300400C9451000C9451000C9451000C945100E8
S11300500C9451000C9451000C9451000C945100D8
S11300600C9451000C94510011241FBECFEFD8E022
S1130070DEBFCDBF11E0A0E0B1E0E8E9FDE002C0E1
S113008005900D92AA30B107D9F721E0AAE0B1E0BA
S113009001C01D92AC30B207E1F70E94BB000C9482
S11300A0CA060C94000095B19F70282F207F922BD4
S11300B095B995B19E7F95B995B1926095B90000B7
S11300C095B19D7F95B932E43A95F1F700C025B119
S11300D030E1839FC0011124922F9F70892B85B931
S11300E085B1826085B9000085B18D7F85B983EFC4
S11300F091E00197F1F700C00000089581E00E94AB
S1130100530083EF91E00197F1F700C0000080E80D
S11301100E9453000895FC012AC085B18F70907F1E
S1130120982B95B985B1816085B985B1826085B90F
S1130130000095B19D7F95B982E48A95F1F700C0DE
S113014045B1919180E1989F90011124942F9F7063
S1130150292B25B995B1926095B9000095B19D7F81
S113016095B983EF91E00197F1F700C00000908109
S11301709111D3CF0895CF93DF93CDB7DEB76097B6
S11301800FB6F894DEBF0FBECDBF0E94860184B5C2
S1130190836884BD85B5816085BD8AB180648AB970
S11301A0E1E8F0E0808188608083808183608083DF
S11301B089E09DE39093890080938800EFE6F0E066
S11301C080818260808378948FEF84B987E893E19B
S11301D00197F1F700C0000082E00E94530088E21A
S11301E00E9453008CE00E94530086E00E9453005A
S11301F081E00E94530083EF91E00197F1F700C082
S1130200000082E00E949A01BC017727072E000CAF
S1130210880B990B0E94BE0220E030E040EA5CE3C8
S11302200E944F0320E030E048EC52E40E944F0368
S11302306B017C0120E030E040EF51E40E944A036E
S11302401816C4F420E030E040EF51E4C701B601D1
S11302500E94AE0120E030E040E251E40E941B0223
S113026020E030E04FE753E40E944F030E948D02E8
S113027067BD01C017BC0E947E00C701B6010E9481
S11302808D027F936F9380E091E09F938F938E0113
S11302900F5F1F4F1F930F930E94E003C8010E943A
S11302A08B009FE32DE083E0915020408040E1F7F4
S11302B000C000000F900F900F900F900F900F90C0
S11302C0A0CF1F920F920FB60F9211248F939F937A
S11302D080910A0190910B01019690930B018093F8
S11302E00A0180910A0190910B01059740F017BC17
S11302F08BB18F7B8BB910920B0110920A019F91E5
S11303008F910F900FBE0F901F901895ACE7B0E03F
S11303108C9180648C93EAE7F0E080818260808332
S11303208081846080838081806880838C918062F6
S11303308C9308958770ECE7F0E09081987F892B87
S11303408083EAE7F0E080818064808380917A0092
S113035086FDFCCF8091790090E008955058BB272A
S1130360AA270E94C6010C9410030E94020338F0CD
S11303700E94090320F039F49F3F19F426F40C94E9
S1130380FF020EF4E095E7FB0C94F902E92F0E94BA
S1130390210358F3BA17620773078407950720F0FF
S11303A079F4A6F50C9443030EF4E0950B2EBA2FC2
S11303B0A02D0B01B90190010C01CA01A001112467
S11303C0FF27591B99F0593F50F4503E68F11A1613
S11303D0F040A22F232F342F4427585FF3CF4695A4
S11303E037952795A795F0405395C9F77EF41F16C6
S11303F0BA0B620B730B840BBAF09150A1F0FF0F90
S1130400BB1F661F771F881FC2F70EC0BA0F621F7B
S1130410731F841F48F4879577956795B795F7956B
S11304209E3F08F0B0CF9395880F08F09927EE0F00
S11304309795879508950E942F020C9410030E94AB
S1130440090358F00E94020340F029F45F3F29F0A9
S11304500C94F90251110C9444030C94FF020E9471
S1130460210368F39923B1F3552391F3951B550B9D
S1130470BB27AA2762177307840738F09F5F5F4F73
S1130480220F331F441FAA1FA9F335D00E2E3AF0B2
S1130490E0E832D091505040E695001CCAF72BD0CA
S11304A0FE2F29D0660F771F881FBB1F261737071B
S11304B04807AB07B0E809F0BB0B802DBF01FF274D
S11304C093585F4F3AF09E3F510578F00C94F9022F
S11304D00C9444035F3FE4F3983ED4F386957795F8
S11304E06795B795F7959F5FC9F7880F911D969506
S11304F0879597F90895E1E0660F771F881FBB1F62
S1130500621773078407BA0720F0621B730B840B0E
S1130510BA0BEE1F88F7E09508950E94290388F02E
S11305209F5798F0B92F9927B751B0F0E1F0660FB3
S1130530771F881F991F1AF0BA95C9F714C0B130F4
S113054091F00E944303B1E008950C944303672F94
S1130550782F8827B85F39F0B93FCCF38695779523
S11305606795B395D9F73EF490958095709561950C
S11305707F4F8F4F9F4F0895E89409C097FB3EF437
S113058090958095709561957F4F8F4F9F4F9923DC
S1130590A9F0F92F96E9BB279395F695879577955A
S11305A06795B795F111F8CFFAF4BB0F11F460FF1A
S11305B01BC06F5F7F4F8F4F9F4F16C0882311F072
S11305C096E911C0772321F09EE8872F762F05C086
S11305D0662371F096E8862F70E060E02AF09A9521
S11305E0660F771F881FDAF7880F9695879597F916
S11305F0089597F99F6780E870E060E008959FEFA1
S113060080EC089500240A941616170618060906A5
S1130610089500240A941216130614060506089574
S1130620092E0394000C11F4882352F0BB0F40F4FC
S1130630BF2B11F460FF04C06F5F7F4F8F4F9F4F3C
S1130640089557FD9058440F551F59F05F3F71F0BE
S11306504795880F97FB991F61F09F3F79F0879525
S11306600895121613061406551FF2CF4695F1DFAE
S113067008C0161617061806991FF1CF869571053E
S1130680610508940895E894BB2766277727CB0172
S113069097F908950E94BC0308F48FEF08950E940F
S11306A062030C9410030E94020338F00E940903B1
S11306B020F0952311F00C94F9020C94FF021124FC
S11306C00C9444030E94210370F3959FC1F3950F8A
S11306D050E0551F629FF001729FBB27F00DB11DC2
S11306E0639FAA27F00DB11DAA1F649F6627B00D52
S11306F0A11D661F829F2227B00DA11D621F739F3B
S1130700B00DA11D621F839FA00D611D221F749F48
S11307103327A00D611D231F849F600D211D822F8F
S1130720762F6A2F11249F5750409AF0F1F08823B6
S11307304AF0EE0FFF1FBB1F661F771F881F9150E3
S11307405040A9F79E3F510580F00C94F9020C9497
S113075044035F3FE4F3983ED4F386957795679519
S1130760B795F795E7959F5FC1F7FE2B880F911D0D
S11307709695879597F90895990F0008550FAA0B38
S1130780E0E8FEEF16161706E807F907C0F01216A0
S11307901306E407F50798F0621B730B840B950BA3
S11307A039F40A2661F0232B242B252B21F40895F8
S11307B00A2609F4A140A6958FEF811D811D089595
S11307C0AEE0B0E0E6EEF3E00C94A1060D891E89DC
S11307D086E08C831A8309838FEF9FE79E838D8342
S11307E0AE01475E5F4F6F89788DCE0101960E94FE
S11307F00204EF81F885E00FF11F10822E96E4E0E9
S11308000C94BD06ABE0B0E0E8E0F4E00C94930691
S11308106C017B018A01FC0117821682838181FFAE
S1130820CCC1CE0101963C01F6019381F70193FD01
S1130830859193FF81917F01882309F4BAC18532A0
S113084039F493FD859193FF81917F01853229F4D9
S1130850B60190E00E94F905E7CF912C212C312CB0
S1130860FFE1F315D8F08B3279F038F4803279F067
S11308708332A1F4232D20611DC08D3261F08033B9
S113088069F4232D216016C0832D8260382EE32D58
S1130890E4603E2E2AC0F32DF8601DC037FC2DC045
S11308A020ED280F2A3040F08E32B9F436FC81C195
S11308B0232D2064322E19C036FE06C08AE0989E8D
S11308C0200D1124922E11C0EAE02E9E200D112439
S11308D0222EF32DF0623F2E08C08C3621F4832D96
S11308E08068382E02C0883641F4F70193FD859163
S11308F093FF81917F018111B3CF982F9F7D9554F0
S1130900933028F40C5F1F4F9FE399830DC0833607
S113091031F0833771F0833509F059C021C0F801F3
S1130920808189830E5F1F4F88248394912C530107
S113093013C02801F2E04F0E511CF801A080B180D1
S113094036FE03C0692D70E002C06FEF7FEFC50172
S11309500E94EE054C018201F32DFF773F2E16C055
S1130960280122E0420E511CF801A080B18036FE1D
S113097003C0692D70E002C06FEF7FEFC5010E94D4
S1130980E3054C01F32DF0683F2E820133FC1BC0BC
S1130990822D90E088169906B0F4B60180E290E0CA
S11309A00E94F9052A94F4CFF50137FC859137FEAE
S11309B081915F01B60190E00E94F90521102A940B
S11309C021E0821A91088114910471F7E8C08436F9
S11309D011F0893641F5F80137FE07C06081718155
S11309E0828193810C5F1F4F08C060817181072E43
S11309F0000C880B990B0E5F1F4FF32DFF763F2ED3
S1130A0097FF09C090958095709561957F4F8F4FA2
S1130A109F4FF0683F2E2AE030E0A3010E94350684
S1130A20882E861845C0853731F4232D2F7EB22EAB
S1130A302AE030E025C0932D997FB92E8F36C1F07E
S1130A4018F4883579F0B5C0803719F0883721F06B
S1130A50B0C0E92FE061BE2EB4FE0DC0FB2DF460E2
S1130A60BF2E09C034FE0AC0292F2660B22E06C04C
S1130A7028E030E005C020E130E002C020E132E0AF
S1130A80F801B7FE07C060817181828193810C5F98
S1130A901F4F06C06081718180E090E00E5F1F4FA0
S1130AA0A3010E943506882E8618FB2DFF773F2E62
S1130AB036FE0DC0232D2E7FA22E891458F434FE49
S1130AC00BC032FC09C0832D8E7EA82E05C0B82C25
S1130AD0A32C03C0B82C01C0B92CA4FE0FC0FE0186
S1130AE0E80DF11D8081803321F49A2D997EA92E81
S1130AF009C0A2FE06C0B394B39404C08A2D8678BC
S1130B0009F0B394A3FC11C0A0FE06C0B21488F48B
S1130B10280C922C9B180EC0B21460F4B60180E22B
S1130B2090E00E94F905B394F7CFB21418F42B188F
S1130B3002C0982C212CA4FE10C0B60180E390E0E2
S1130B400E94F905A2FE17C0A1FC03C088E790E04B
S1130B5002C088E590E0B6010CC08A2D867859F071
S1130B60A1FE02C08BE201C080E2A7FC8DE2B601C7
S1130B7090E00E94F905891438F4B60180E390E00E
S1130B800E94F9059A94F7CF8A94F301E80DF11DB8
S1130B908081B60190E00E94F9058110F5CF2220F2
S1130BA009F442CEB60180E290E00E94F9052A944D
S1130BB0F6CFF6018681978102C08FEF9FEF2B96C7
S1130BC0E2E10C94AF06FC01059061507040011005
S1130BD0D8F7809590958E0F9F1F0895FC01615062
S1130BE0704001900110D8F7809590958E0F9F1F4B
S1130BF008950F931F93CF93DF93FB01238121FD6E
S1130C0003C08FEF9FEF2CC022FF16C0468157818F
S1130C10248135814217530744F4A081B1819D0199
S1130C202F5F3F4F318320838C93268137812F5F41
S1130C303F4F3783268314C08B01EC01FB010084F2
S1130C40F185E02D0995892BE1F6D80116968D9151
S1130C509C911797019617969C938E931697CE01A5
S1130C60DF91CF911F910F910895FA01AA2728309F
S1130C7051F1203181F1E8946F936E7F6E5F7F4F65
S1130C808F4F9F4FAF4FB1E03ED0B4E03CD0670FE1
S1130C90781F891F9A1FA11D680F791F8A1F911D34
S1130CA0A11D6A0F711D811D911DA11D20D009F484
S1130CB068943F912AE0269F11243019305D3193C6
S1130CC0DEF6CF010895462F4770405D4193B3E0AF
S1130CD00FD0C9F7F6CF462F4F70405D4A3318F056
S1130CE0495D31FD4052419302D0A9F7EACFB4E007
S1130CF0A6959795879577956795BA95C9F70097BF
S1130D006105710508959B01AC010A2E069457955F
S1130D10479537952795BA95C9F7620F731F841FB6
S1130D20951FA01D08952F923F924F925F926F924C
S1130D307F928F929F92AF92BF92CF92DF92EF9267
S1130D40FF920F931F93CF93DF93CDB7DEB7CA1BE8
S1130D50DB0B0FB6F894DEBF0FBECDBF09942A8813
S1130D60398848885F846E847D848C849B84AA84BB
S1130D70B984C884DF80EE80FD800C811B81AA8148
S1130D80B981CE0FD11D0FB6F894DEBF0FBECDBF13
S10B0D90ED010895F894FFCF72
S10D0D9854656D702E3A20256400A6
S9030000FC
